:100000000C9475040C94AD040C94AD040C94AD04E4
:100010000C94AD040C94AD040C94AD040C94AD049C
:100020000C94AD040C94AD040C94C32E0C94972F37
:100030000C94E2280C94AD040C94AD040C94AD0423
:100040000C94AD040C94AD040C94AD040C94AD046C
:100050000C94F01F0C9469290C94AD040C94AD041D
:100060000C94AD040C94AD040C94AD040C94AD044C
:100070000C94AD040C94AD040C94AD040C94AD043C
:100080000C94AD040C94AD040C94AD040C94AD042C
:100090000C94AD040C94AD04290000003A003B0020
:1000A0003C003D0000003E003F0040004100420097
:1000B00043004400450046004700480035001E004C
:1000C0001F0020002100220023002400250026001C
:1000D00027002D002E002A00000049004A004B0096
:1000E0002B0014001A000800150017001C0018004F
:1000F0000C00120013002F003000310000004C00F3
:100100004D004E00390004001600070009000A00E7
:100110000B000D000E000F003300340032002800E9
:100120000000000000000000E10032001D001B0084
:1001300006001900050011001000360037003800D5
:10014000E50076000000000052000000E000E3003F
:10015000E2000000000000002C0000000000000091
:10016000E600E7000151E4000000500051004F009C
:1001700001000000C25CBF5C010001000000C35C24
:10018000C55CC75CC95CC05CC15CBD5CBE5C010099
:100190000100010001000100010001000100010057
:1001A0000100010001000100010001000100010047
:1001B0000000010001000100010001000100010038
:1001C0000100010001000100010001000100010027
:1001D0000100010000000100010001000100010018
:1001E0000100010001000100010001000100010007
:1001F00001000100010001000000000000000000FB
:100200000100010001000100010001000100145C77
:1002100001000100010001000100010000000000D8
:1002200001000000010001000100000000000000CA
:1002300001000000000000000100010001000100B9
:1002400000000100010001000100000001000100A8
:100250000100010000000100010001000100010097
:100260000100010001000100010001000100010086
:100270000100010001000100010001000100010076
:100280000100010001000100000001000100010067
:100290000100010001000100010001000100010056
:1002A0000100010001000100010001000000010047
:1002B0000100010001000100010001000100010036
:1002C0000100010001000100010001000100010026
:1002D000000000000000000001000100010001001A
:1002E0000100010001000100010001000100010006
:1002F00001000100000000000100000001000100F9
:1003000001000000000000000100000000000000EB
:1003100001000100010001000000010001000100D6
:1003200001000000010001000100010000000100C7
:1003300001000100010001000100010001000100B5
:1003400001000100010001000100010001000100A5
:100350000100010001000100010001000100010095
:100360000000010001000100010001000100010086
:100370000100010001000100010001000100010075
:100380000100010000000100010001000100010066
:100390000100010001000100010001000100010055
:1003A0000100010001000100000000000000000049
:1003B0000100010001000100010001000100010035
:1003C0000100010001000100010001000000000027
:1003D0000100000001000100010000000000000019
:1003E0000100000000000000010001000100010008
:1003F000000001000100010000047F3F1F6432146F
:10040000643214783C1E1E140A052223252628294E
:100410002A2C2D2F3032333536383A3B3D3E404280
:10042000434547494A4C4E5051535557595A5C5EC3
:100430006062646668696B6D6F71737577797B7DD7
:100440007F81838587898A8C8E90929496989A9CD6
:100450009E9FA1A3A5A7A8AAACAEAFB1B3B4B6B8EE
:10046000B9BBBCBEBFC1C2C3C5C6C7C9CACBCCCD50
:10047000CED0D1D2D2D3D4D5D6D7D7D8D9D9DADA2B
:10048000DBDBDBDCDCDCDCDCDDDDDDDDDCDCDCDCAB
:10049000DCDBDBDBDADAD9D9D8D7D7D6D5D4D3D2DF
:1004A000D2D1D0CECDCCCBCAC9C7C6C5C3C2C1BFBD
:1004B000BEBCBBB9B8B6B4B3B1AFAEACAAA8A7A521
:1004C000A3A19F9E9C9A98969492908E8C8A8987DD
:1004D0008583817F7D7B79777573716F6D6B6968BB
:1004E000666462605E5C5A5957555351504E4C4A8F
:1004F0004947454342403E3D3B3A3836353332303A
:100500002F2D2C2A292826252322FFAA7F5540009B
:1005100000000000000000000000010102030405CB
:1005200006080A0C0F1114181C2024292E33393FF9
:10053000464C535B626A7179818A929AA2AAB2B9D7
:10054000C1C8CFD5DCE1E7EBF0F4F7FAFCFDFEFF24
:10055000FEFDFCFAF7F4F0EBE7E1DCD5CFC8C1B95A
:10056000B2AAA29A928A8179716A625B534C463F21
:1005700039332E2924201C1814110F0C0A080605E3
:100580000403020101000000000000000000000060
:100590000101010101010101010202020202020244
:1005A0000202030303030303030304040404040417
:1005B00004050505050506060606060707070707DD
:1005C00008080808090909090A0A0A0B0B0B0C0C90
:1005D0000C0D0D0D0E0E0E0F0F0F1010111111122C
:1005E0001213131414151516161717181819191AAB
:1005F0001A1B1B1C1D1D1E1E1F202021222223240E
:1006000024252626272829292A2B2C2D2D2E2F304C
:10061000313232333435363738393A3B3C3D3E3F60
:10062000404142434445464748494A4C4D4E4F504D
:10063000515354555658595A5B5D5E5F616264650B
:100640006668696B6C6D6F7072737577787A7B7D95
:100650007E8082838587888A8C8E8F9193959698E9
:100660009A9C9EA0A2A3A5A7A9ABADAFB1B3B5B705
:10067000BABCBEC0C2C4C6C9CBCDCFD1D4D6D8DBDC
:10068000DDDFE2E4E7E9EBEEF0F3F5F8FAFDFF0079
:10069000000000000000002A2B28000000000000DD
:1006A0000000000000000000000029000000002CF5
:1006B0001E3420212224342627252E362D37382794
:1006C0001E1F202122232425263333362E37381FA0
:1006D0000405060708090A0B0C0D0E0F1011121362
:1006E0001415161718191A1B1C1D2F3130232D3500
:1006F0000405060708090A0B0C0D0E0F1011121342
:100700001415161718191A1B1C1D2F3130354C00E3
:1007100000000000000000000000000000000000D9
:1007200000000000000000000000000000000000C9
:100730000000007E0F00D4FFFFFFC7000000780A12
:1007400003410041005200550000001403480065B9
:10075000006C006900780020004C0061006200001D
:10076000000403090409025B00030100A0FA090464
:1007700000000103010100092111010001224000D4
:1007800007058103080001090401000203000000BD
:100790000921110100012222000705820320000126
:1007A0000705030320000109040200010300000003
:1007B00009211101000122B6000705840320000170
:1007C00012010002000000084C4855446500010277
:1007D00000010660FF0961A1010962150026FF0002
:1007E0009520750881020963150026FF0095207584
:1007F000089102C005010902A10185020901A100B9
:1008000005091901290815002501950875018102BE
:100810000501093009311581257F9502750881068A
:1008200009381581257F950175088106050C0A3860
:10083000021581257F950175088106C0C005010953
:1008400080A101850319012AB700150126B700957B
:100850000175108100C0050C0901A1018504190171
:100860002AA002150126A002950175108100C0057D
:10087000010906A1018506050719E029E7150025EC
:10088000019508750181020507190029EF1500255A
:100890000195F07501810205081901290595057575
:1008A000019102950175039101C005010906A1019D
:1008B000050719E029E71500250195087501810252
:1008C0009501750881010507190029FF150026FF0C
:1008D000009506750881000508190129059505751B
:1008E000019102950175039101C011241FBECFEF44
:1008F000D0E1DEBFCDBF04B603FE18C08091750302
:1009000090917603A0917703B09178038730904B54
:10091000A740B04B59F410927503109276031092D1
:10092000770310927803E0E0F8E7099511E0A0E082
:10093000B1E0E8E8F5E602C005900D92AA3DB107E6
:10094000D9F723E0AAEDB1E001C01D92A537B207A7
:10095000E1F70E9415140C9492320C940000819AD5
:100960003D9A0E94AA0F0895CF93C82F0E94E905CF
:10097000882331F0C1FD06C0899AC2FD05C0459AA1
:10098000CF9108958998F9CF4598FACF0E948E1E8D
:100990000E941D1C4FEF68EC89E60E94861983E0D7
:1009A0000E94191C0E94280F089584E0089581E098
:1009B000089581E008950E94D904089508950E9441
:1009C000DE040895A5E0B0E0E8EEF4E00C94F33125
:1009D00049835A833091E10189819A81311119C08B
:1009E000662399F0222389F00E94E30A182F682FCA
:1009F00089819A810E94BF0A69817A81812F0E9430
:100A0000CB252596E3E00C940F320E94D10A182FD3
:100A1000F3CF0E94E30A69817A81F1CFFC01262F8E
:100A2000408151816281738184810E94E204089532
:100A300081E00895CF93DF93EC0160E00E940E0502
:100A4000BE010E94DF04DF91CF910895E1E0F0E064
:100A5000DF0102C0AA0FBB1F6A95E2F7BD01DF01EB
:100A600002C0AA0FBB1F4A95E2F76A2B01C0EE0F26
:100A70002A95EAF7962F9823961302C08E2B089595
:100A8000E0958E230895242F462F682F80910C0225
:100A90000E9426050E941F0A08950E949D12089533
:100AA0000E94A112089508950E94B1090E94530561
:100AB0002FEF84E39CE0215080409040E1F700C09C
:100AC000000008950E9454050E948D2908950E94F7
:100AD00054050E94B12908950F931F93CF93DF937C
:100AE0008C0161E00E940E05EC01B8010E942721F3
:100AF000811106C080E0DF91CF911F910F91089581
:100B0000B801CE010E94DB048823A1F3B801CE0115
:100B10000E94081F882371F3B801CE010E9411279B
:100B2000882341F3B801CE010E94C822882311F323
:100B3000B801CE010E9483268823E1F2B801CE01DC
:100B40000E94231D8823B1F2F8018281882361F07D
:100B5000CA35FDE5DF0701F158F4C115ECE5DE0704
:100B600091F0CE3DDC4591F0C8010E94D704C3CF7F
:100B7000CC358DE5D80769F090F0C73ADD45A1F78F
:100B80000E946705B7CF0E946205B4CF0E948D0F07
:100B9000F7CF0E94D60EE8CF0E94E00EE5CF0E946C
:100BA000E40EE2CF0E94BC2880E00E94AE1F0E94AB
:100BB000F5050E94991B08950E94341E0E94F905B4
:100BC0000E94701C0E94C128089508950E94E505A6
:100BD000089581E008950895CF93C82F0E94E605F7
:100BE0008C2F0E94B404CF91089580E00E94EC0500
:100BF00008950E946D270E94EC050895CF930E94EE
:100C00006D27C82F8091DC018C1779F0C093DC012F
:100C10000E944E296093DD017093DE018093DF0115
:100C20009093E0018C2F0E94EC05CF910895ABE0EA
:100C3000B0E0EDE1F6E00C94F4314F83588769871A
:100C40007A878B8761110E94210E1E821D8285E0AA
:100C5000FE013796DE01119601900D928A95E1F71B
:100C60008C819D81892B61F449815A816B817C81C2
:100C70008D819E810E944A0D2B96E2E00C941032E9
:100C800089819A8189238F3F79F3CE0101960E9451
:100C900018058111E9CFF0CFFC01808191810E947C
:100CA000100B0895CF93C82F8823C9F08238C9F458
:100CB0000E946D2781FD13C089E30E94D90D0E9417
:100CC000420E2FEF87EE93E0215080409040E1F7F5
:100CD00000C0000089E30E94E10D0E94420ECF9106
:100CE00008958338A1F40E946D2780FDF8CF83E535
:100CF0000E94D90D0E94420E2FEF81EE94E0215008
:100D000080409040E1F700C0000083E5E4CF8438E4
:100D1000A1F40E946D2782FDE2CF87E40E94D90DE5
:100D20000E94420E2FEF81EE94E0215080409040CF
:100D3000E1F700C0000087E4CECF8CEF8C0F813A42
:100D400090F46C2F80910001909101010E94E227A4
:100D5000882329F08C2F0E94E10D0E94420E8C2FD7
:100D60000E94D90DBACF80E28C0F883048F4C7704A
:100D700081E001C0880FCA95EAF70E94040EADCF4A
:100D8000EBE5EC0FE33040F4F0E0E65AFE4F8081F3
:100D900090E00E94A227A3CFE8E5EC0FE73150F4E2
:100DA000F0E0EE0FFF1FE45DFE4F808191810E9415
:100DB000B82795CFC03F08F492CF8C2F0E9499148A
:100DC0000E946C158CCF882309F455C0823879F4C1
:100DD0000E946D2781FF4FC089E30E94D90D0E94B8
:100DE000420E89E30E94E10D0E94420E089583386D
:100DF00059F40E946D2780FF3EC083E50E94D90D03
:100E00000E94420E83E5EECF843859F40E946D278C
:100E100082FF31C087E40E94D90D0E94420E87E410
:100E2000E1CF9CEF980F913AE8F290E2980F98305A
:100E300050F4877091E001C0990F8A95EAF7892FE5
:100E40000E940A0ED1CF9BE5980F933028F490E0D2
:100E500080E00E94A227089598E5980F973128F422
:100E600090E080E00E94B8270895803F20F00E9423
:100E7000F3140E946C1508951F93CF93DF93182FDE
:100E8000EB010E945206209739F4812F0E94E3065D
:100E9000DF91CF911F9108958FE99FE00197F1F7BE
:100EA00000C000002197EFCF70E060E0893311F4BB
:100EB00060E570E00E943C070895882321F00E94BD
:100EC000040E0E94420E0895882321F00E940A0E0B
:100ED0000E94420E0895B0E0A0E0E1E7F7E00C9434
:100EE000ED316C01D62FC72FFC011281F580F294F1
:100EF0009FE0F9220E94FA0DE82E8823B9F0E12E36
:100F00001123A1F08C2F807F803421F080E28D0F9F
:100F10008830D0F08091000382FF16C082E00E94EA
:100F2000A50E0E94FA0D91E0E82EE926BC2EB2949F
:100F30008FE0B822FBE0FB1508F468C0EB2DF0E071
:100F4000EC56FD4C0C94A631E12CF0CF0C2F0F7019
:100F5000C07F11F00295007F112399F0002359F012
:100F600080E28D0F883010F0D11107C0802F0E94D1
:100F7000040E0E94420E8D2F41C0802F0E94140E3D
:100F8000F8CF8D2F0E94E306002309F43FC080E2D2
:100F90008D0F883010F0D11104C0802F0E940A0EEE
:100FA00003C0802F0E941A0E0E94420E2FC00C2FE9
:100FB0000F70C07FC03211F00295007FDD2381F0F9
:100FC000D13009F463C0112309F46DC0FF2009F486
:100FD00063C0F601858180FFCECF8F7085835CC0B2
:100FE0008091000382FD33C0112359F0002329F0C2
:100FF000802F0E94040E0E94420E80E00E94520642
:1010000005C080E00E94E3060111C7CFEB2DE85038
:10101000FF0B349720F40E946D270E94EC05EE2010
:1010200089F00E94F60D80FD0DC0F60112820E942B
:10103000F00D0E94330AC6010E9471090E94F00D52
:101040000E943F0ACDB7DEB7E9E00C9409321123C4
:1010500089F0F11006C00E94240E802B0E945D07CB
:10106000D5CF21E0F212F7CF0E94240E802B0E94F0
:101070002B0ECCCFF11006C00E94380E802F0E949C
:101080006407C4CF31E0F31609F2F6CF112331F033
:1010900085E08F1508F4BACF802FE0CF94E09F153C
:1010A00008F4B4CFEBCFFF2049F3D93349F4FFEF75
:1010B00027EE33E0F15020403040E1F700C000005F
:1010C0008D2F0E94E306A2CF8C2F86958695837084
:1010D00069F0813009F09ACF8D2F9C2F93701111F8
:1010E00002C090E080E00E94B82790CF8D2F9C2F07
:1010F0009370111102C090E080E00E94A22786CF79
:101100008D2F112329F00E9499140E946C157ECF17
:101110000E94F314FACF8C2F837079F5111176CFDA
:101120004D2F429546954770440F440F8D2F8F7079
:10113000042E01C0880F0A94EAF72D2F2071D4FFE6
:1011400007C02FE030E001C0220F4A95EAF7209552
:10115000C695C695C370822BC23049F058F4C13091
:1011600019F00E940D0A52CF0E94070A4FCF0E9429
:10117000130A4CCF0E94040A49CF8695112311F01F
:101180008C2F8170882309F441CF4D2F42954695CD
:101190004770440F440F8D2F8F70042E01C0880FAD
:1011A0000A94EAF72D2F2071D4FF07C02FE030E01A
:1011B00001C0220F4A95EAF72095C695C695C370DF
:1011C000822BC23049F058F4C13019F00E945E0AF7
:1011D0001DCF0E94580A1ACF0E94640A17CF0E949E
:1011E0001F0A14CFCF70112329F08C2F0E94330ACD
:1011F0008D2F34CF8D2F0E9464078C2F0E943F0AC1
:1012000005CFD23F51F160F4D03FB9F0D13F81F02A
:10121000112309F449C0F110AECE8C2F8F7121C07B
:10122000D33F11F1D43FA1F78091000382FD26C086
:101230008C2F8F71112311F314C0112349F084E016
:101240008F1508F4E3CE8C2F8F710E944C0ADECEEE
:1012500095E09F1508F4DACEF6CF8C2F8F7111111F
:10126000CDCF0E94330AD2CE112329F08C2F8F715B
:101270000E942A0ACBCE0E94260AC8CE112349F02A
:10128000CF718C2F0E94330A63E08C2F0E94870E4F
:10129000BDCE81E00E94A50EE1E0EF1508F0B6CECC
:1012A00082E00E94A50EB2CEF110FFCE8C2F8F717E
:1012B000A5CF0F931F93CF93DF93EC0168817981C2
:1012C0008A810E941B0B8C010E946A0A0E94030AF9
:1012D000B801CE010E946B07DF91CF911F910F9152
:1012E0000895CF93DF93EC018B819C81892B29F0AA
:1012F0008881998189238F3F51F4DF91CF9108959F
:10130000CE010E945909CE010E941A05F6CFCE01E6
:101310000E946C058111F4CF0E94FA0D882369F3B5
:101320008A81882351F38091000382FFE6CF82E017
:101330000E94A50EE2CF90E080E00E94A22790E0FC
:1013400080E00E94B8270E94210E0E94420E0E9457
:1013500088150E946C1508950E94E90D0E949B0952
:1013600008950E94110E0E94AC09089592959F70F5
:10137000963091F058F4925F9F70923058F4803F0D
:1013800019F030F4883E30F481E008959A5FF4CF8C
:10139000843FD1F380E00895883EB0F3813FD1F7D8
:1013A000F3CFFC0183819481892B29F08081918185
:1013B00089238F3F11F480E00895808191810E94FC
:1013C000100B0E94B6090895A5E0B0E0EAEEF9E03E
:1013D0000C94F4312596E2E00C941032A6E0B0E0D3
:1013E000E4EFF9E00C94F4312696E2E00C9410322C
:1013F00008950E94F80908950E94F90980930D024A
:101400000E949B09089508950E94FC0908959091F7
:101410000D02892B0E94FC09089590910D028923E9
:101420000E94FC09089590910D0289270E94FC09F1
:1014300008950E94F80908950E94190A08950E94CB
:101440001C0A80930C020E949B09089580E00E9470
:101450001F0A089591E001C0990F8A95EAF7892F34
:101460000E941F0A089521E030E001C0220F8A95F2
:10147000EAF780910C02822B0E941F0A089521E056
:1014800030E001C0220F8A95EAF7209580910C0286
:1014900082230E941F0A089521E030E001C0220F3C
:1014A0008A95EAF780910C0282270E941F0A08950C
:1014B00090910C02892B0E941F0A089590910C02B2
:1014C00089230E941F0A089590910C0289270E9487
:1014D0001F0A08950895262F277091E001C0990FE3
:1014E0002A95EAF723E0769567952A95E1F7FB01BF
:1014F000EE0FFF1FE60FF71FE40FF51F50E040E06F
:10150000682F70E08191DF0111979B01042E02C0CA
:10151000369527950A94E2F72170219528272923EB
:1015200028272C934F5F5F4F4330510559F708959B
:10153000A82FA77023E0969587952A95E1F7FC01DF
:10154000EE0FFF1FE80FF91FE60FF71F50E040E016
:1015500080E0219130E00A2E02C0369527950A944A
:10156000E2F721703327042E01C0220F0A94EAF714
:10157000822B4F5F5F4F4330510559F70895262F57
:10158000963070F4823160F4682F70E082E1989FA9
:10159000600D711D112442EE51E0822F0E946B0AF2
:1015A0000895292F963068F4823158F490E062EE65
:1015B00071E032E1239F800D911D11240E94980A51
:1015C000089580E00895CF92DF92FF920F931F93CA
:1015D000CF93DF936C0100910C0280910D02082BD8
:1015E000C7E0D0E010E0FC2EC8010C2E02C095959B
:1015F00087950A94E2F780FD0CC02197A0F7F12CA3
:101600008F2DDF91CF911F910F91FF90DF90CF90A1
:101610000895B6018C2F0E947B11019771F3F0CFD2
:10162000CF93DF93EC010E94E30ABE010E947B117D
:10163000DF91CF9108951F93CF93DF93EB019091AA
:10164000E101992339F0CB010E94100BDF91CF917A
:101650001F910895882369F0CB010E94E30A182F97
:10166000682FCE010E94BF0ABE01812F0E947B110C
:10167000EDCFCB010E94D10A182FF6CF1F93CF9345
:10168000DF93C0910E0216E080910F028C1304C00C
:10169000DF91CF911F910895D0E01C9FF0011D9F15
:1016A000F00D1124E05FFD4F408151816281738113
:1016B000848195810E94EE092196C770E5CF409103
:1016C0004002509141026091420270914302809128
:1016D0004402909145020E94EE0908951F93CF9312
:1016E000DF9380914502807F09F049C080914202DA
:1016F000882309F444C080910E02C0910F026091CA
:10170000400270914102A0914302B0914402D62F51
:10171000D72316E0C81799F190E0109711F0DF3F3A
:1017200019F401968770F6CF189F9001199F300D1C
:101730001124F901E05FFD4F41814713F2CF408151
:101740004613EFCF42814111ECCF438154814A1BB4
:101750005B0B483C510528F7809145028F708061F2
:1017600080934502F901EB5EFD4F80818F708061AF
:10177000808380E492E00E9471090E943E0BDF9119
:10178000CF911F910895A1E1B0E0E9ECFBE00C944A
:10179000EC318C0185E0F801DE011D9601900D927F
:1017A0008A95E1F7F801E28080E4C82E82E0D82E25
:1017B00060914302709144026115710509F44EC1B4
:1017C0009091400220914102892F82238F3F09F49A
:1017D00045C140815181A380B480F0904202F5015F
:1017E000E61BF70BFF2009F4EAC080914502382F71
:1017F000307FE83CF10508F0A3C031116DC0FE2C2C
:10180000251316C0941314C0E11012C08F708061AC
:10181000809345020E945F0BC6010E94710980916E
:101820004502F80185838F2D6196EAE00C94083219
:10183000A114B10429F0842F85238F3F09F027C11B
:1018400080E0F82FF170DF2E80FF3CC080910E0207
:1018500020910F0236E0821315C04D875E878D857B
:101860009E850E94100B292F22952F702230F0F0B8
:10187000243018F59F70F1F0F8019581907FD1F434
:10188000D12C1EC090E0389FF001399FF00D11243B
:10189000E05FFD4F6181651306C06081641303C082
:1018A0006281E6120FC001968770D5CF9F7011F04C
:1018B000882331F3805E883018F3C8010E947109D3
:1018C000FD2CB1CFEE2009F4AECF809145028160AE
:1018D00080934502F12CA7CF251306C0941304C0B2
:1018E000F801EE2009F487C0C8010E94D1098823BD
:1018F00019F1EE2009F180914502803270F02091BB
:1019000040023091410238872F831986BB86AA8610
:101910008C87CE0107960E94710986E0F801A0E449
:10192000B2E001900D928A95E1F70E946E0B0E9441
:101930005F0BFF24F39477CFC8010E947109F9CFA0
:10194000311113C07A2DB98AA88A6E2D89890E9417
:10195000E40980E492E00E94710986E0F6011192A8
:101960008A95E9F70E945F0BB5CF25130FC094133A
:101970000DC0E1100BC0F8018583C8010E947109F8
:1019800086E0F60111928A95E9F74DCFC8010E94D1
:10199000D109882389F2EE2079F2809145028032C4
:1019A00008F4BBCF20914002309141023A83298351
:1019B0001B82BD82AC828E83CE010196ACCFE83C07
:1019C000F10508F03EC0FE2CEE2009F4B5CF25133A
:1019D0002AC0941328C08091450280FD1BC0982F17
:1019E000907FC1F0F8018583903F31F0982F907F70
:1019F000905F8F70892B8583C8010E94710986E0F2
:101A0000F801A0E4B2E001900D928A95E1F70E94FE
:101A10005F0B09CF86E0F801A0E4B2E001900D92DF
:101A20008A95E1F700CFC8010E94D109811175CFD5
:101A300080914502816080934502C8010E9471092E
:101A4000F2CE7A2DB98AA88A6E2D89890E94E4097E
:101A500086E0F60111928A95E9F7D9CFEE2009F4D4
:101A60006BCFC8010E94D109F82E882309F464CFF6
:101A700086E0F801A0E4B2E001900D928A95E1F7CA
:101A800080E492E00E944C060E946E0BC0CF81E081
:101A90008E25D7CEACE0B0E0E0E5FDE00C94F3316C
:101AA0004F83588769877A878B879C87CE010796F3
:101AB0000E94C30B882369F08A859B85892B39F0A6
:101AC0004F815885842F85238F3F09F06BC016E026
:101AD0005FC086E0FE013796DE01119601900D92FF
:101AE0008A95E1F78A859B85892B89F38F81988573
:101AF00089238F3F61F320910F0230E0C9010196E5
:101B00008770992740910E024817190671F40E94B8
:101B1000B10910920F0210920E0286E0E0E4F2E0AA
:101B2000DF011D928A95E9F7D2CF96E0929FD0010E
:101B3000939FB00D1124A05FBD4FFE01319601901F
:101B40000D929A95E1F780930F020E943E0BBFCF52
:101B5000819FC0011124805F9D4F0E94C30B882389
:101B6000E9F0E0910E021E9FF0011124E05FFD4FAD
:101B70004081518162817381848195810E94EE0947
:101B800080910E0290E001968770992780930E0253
:101B900080910E0290910F028913DACF2C96E3E028
:101BA0000C940F3269857A858B859C850E94EE099D
:101BB0008ECF682F80910001909101010E946228D0
:101BC0000895682F80910001909101010E94702872
:101BD000089580910001909101010E947E2808954E
:101BE0008091660285958595859508958091660218
:101BF0008770089590916602977081E009F480E003
:101C0000089580918902089590918902892B80938B
:101C10008902089580959091890298239093890272
:101C2000089510928902089590918802892B8093DB
:101C30008802089580959091880298239093880255
:101C4000089510928802089580916702089508957A
:101C50000E94270E08959091000392FF08C0909172
:101C60006702981721F0809367020E94280E08955A
:101C700080916702882329F01092670280E00E9419
:101C8000280E0895CF93DF93E0910001F0910101B8
:101C9000809189028083E0910001F09101018081AF
:101CA00090918802892B808390916702992381F01B
:101CB000E0910001F09101018081892B8083809166
:101CC0000001909101010E94CE2781110E94380EDF
:101CD000C0910001D091010140E250E066E472E061
:101CE000CE010E943432892B59F080E2FE01A6E435
:101CF000B2E001900D928A95E1F7CE010E947A2719
:101D0000DF91CF91089508950E94830E08959091D8
:101D1000000392FF11C098E0899F90011124622B6B
:101D2000609366020E94330A8091660285958595CC
:101D300085950E94840E08950E94330A089510929A
:101D4000660280E00E94840E08959091660280955C
:101D5000892380936602282F277091F4282F082E5C
:101D6000000C330B9217130659F09091000392FF69
:101D700007C08595859585950E943F0A0E949F0E14
:101D800008959091000392FB222720F9281769F00B
:101D900080FB92F9909300038091FF0290910003E1
:101DA0000E94130F82E00E94A50E08958091000307
:101DB00082FB882780F991E089270E94C10E08954F
:101DC00081E00E94C10E089580E00E94C10E089536
:101DD0006FEF7FEF90E080E00E947C32089590E00A
:101DE00080E00E945832883E9E4F19F40E94C22023
:101DF000089580E0089582E090E00E944A320895BC
:101E000083E090E00E944A320895CF9384E090E00E
:101E10000E944A32C82F82E290E00E944A32982FF4
:101E20008C2FCF910895CF93C92F682F84E090E035
:101E30000E945E326C2F82E290E00E945E32CF916F
:101E40000895AB01BC0183E190E00E9470320895D7
:101E500060E070E0CB010E94210F089568EE7EEFF4
:101E600090E080E00E947C3260E082E090E00E949E
:101E70005E3260E083E090E00E945E3210920D02DC
:101E800060E084E090E00E945E3264E082E290E0F4
:101E90000E945E3260E085E090E00E945E3260E089
:101EA00086E090E00E945E326FEF87E090E00E9453
:101EB0005E3240E050E0BA0188E090E00E9470326B
:101EC00060E08DE090E00E945E3240E050E0BA01B8
:101ED00088E190E00E94703260E087E190E00E942B
:101EE0005E3240E050E0BA018CE190E00E94703236
:101EF00070E060E080E290E00E947C3240E050E0E0
:101F0000BA0188E190E00E94703280E00E94DB20FC
:101F10000E940A210E94C60408950E942E0F08956F
:101F2000682F8EE090E00E945E3208950E944E2954
:101F30006093A8027093A9028093AA029093AB02C7
:101F40006093A4027093A5028093A6029093A702C7
:101F500008950895089508950E94AB0F089585E6A9
:101F600092E10E9463270E94A90F0E94AF04089586
:101F700081E008950E94B80F0895089508950E9481
:101F8000BD0F0E94BE0F08950E9481120E94EB05B2
:101F90000E94802008950E9439290E941A210E94DF
:101FA00075130E94C40F0E94341E0E94341C0E94AC
:101FB000AC0F0895ACE0B0E0E0EEFFE00C94E5314A
:101FC0000E948B138CE892E09C878B877C0110E049
:101FD000F70141905190619071907F01812F0E9493
:101FE000A4121F5F163009F465C04616570668062E
:101FF000790671F38091AC0281FD0E94AF120E94BC
:10200000BA0F382E10E0812F0E94A4126B017C01C0
:10201000EB85FC854190519061907190FC87EB8736
:10202000C414D504E604F704F1F146265D246826BD
:102030007F2400E0812C912C54018394D301C201B0
:1020400088219921AA21BB21892B8A2B8B2BE9F08E
:102050003320D9F00E831F8321E0D701C6018821E8
:102060009921AA21BB21892B8A2B8B2B09F420E0F3
:1020700028870E9442298160782F9A8789874E811C
:102080005F8168858A850E9417060F5F880C991CFE
:10209000AA1CBB1C023191F6EB85FC853497C082EB
:1020A000D182E282F3821F5F163009F0ACCF0E942A
:1020B000960F24C0461657066806790609F09ACF8F
:1020C0000E9442298C0180918A0290918B0208170C
:1020D0001907A1F08FEF89838A831B820E9442290E
:1020E0008160782F9D838C8349815A816B818D819A
:1020F0000E94170610938B0200938A020E947A1C9A
:102100000E94D91F0E94AA150E94FE052C96E1E1AB
:102110000C940132CF93DF930E948011EC01811562
:1021200021E5920708F042C0811530E5930708F0D9
:102130009FC0883E910530F5803E910508F094C01F
:10214000883A910588F4853A910508F086C0813077
:10215000910509F489C0009709F486C0049708F036
:1021600083C0D0E0C0E080C08F3B9105D0F7C85A53
:10217000D0E0CC0FDD1FC35ADE4F0990D881C02DAF
:10218000D46472C0811540E2940750F4C11581E017
:10219000D80708F069C0C03FD10518F3D06564C006
:1021A00081159044F0F2DF70D06A5EC0811535E58C
:1021B000930718F5811544E5940708F085C0C1150B
:1021C00083E5D80708F06CC0C11522E5D20708F4F2
:1021D00062C0CE018370992721E030E002C0220F57
:1021E000331F8A95E2F7C695C69580E2C89FE00145
:1021F0001124C22BD32BDC6837C0811539E5930736
:10220000A8F4811548E5940708F063C0C11586E578
:10221000D80708F0A6CF8C2F0E942212C82FD0E03A
:10222000DC2FCC27CC27DF71D0621EC081152AE5B8
:10223000920708F453C090568115904208F091CF50
:102240008D2F8F710E94221290E0982F8827882767
:102250009F719C012C2BE901E7CFC55AD0E0C557EF
:10226000DE4FC881D0E0D064CE01DF91CF910895D8
:102270008370992721E030E002C0220F331F8A9536
:10228000E2F7C695C69540E2C49FE0011124C22B37
:10229000D32BDD68E9CFDC2FCC27C16FD06AE4CF28
:1022A000CE018370992721E030E002C0220F331F56
:1022B0008A95E2F7C695C69540E2C49FE0011124D5
:1022C000C22BD32BDA68D0CFD82FCC27C46FD06ADB
:1022D000CBCFD82FCC27C06FD06AC6CF8F700E94CB
:1022E000221234E0D695C7953A95E1F7CF709C2F2E
:1022F000EC01D069B9CF0E94CB250E948A100895C5
:1023000082389105B9F1B0F48133910509F47DC0AB
:1023100048F48932910509F46DC08A32910509F4B7
:102320007BC008958533910509F45FC08933910519
:1023300009F10895833E9105D9F138F4803E910565
:1023400029F1823E910579F10895863E9105D9F1F2
:10235000873E910509F43EC0843E910541F52091E8
:10236000000321FF24C08091FF0284FD19C087EE85
:1023700090E008952091FF02237009F05AC0209147
:10238000000323FF14C089E290E008952091FF022A
:1023900020FD38C03091000330FF09C024FF43C046
:1023A00090E080E008952091FF0222FDF7CF08958C
:1023B0002091FF0222FD3AC03091000330FD39C068
:1023C00024FFF5CFEDCF2091FF0223FFF0CF24FDB6
:1023D000E7CFCDCF2091FF0223FD2EC03091000327
:1023E00031FFEECF84EE90E008952091FF0225FFAB
:1023F000DECFC9CF2091FF0225FD21C0209100032F
:1024000023FFD5CF89E390E0D2CF2091FF0226FFB2
:10241000CECF8AE290E008952091FF0226FFC7CF39
:1024200081E390E0089583EE90E0089582EE90E0DD
:10243000089580EE90E0089586EE90E0089585E39B
:1024400090E008959091FF0292FF06C0282F287116
:102450002830F9F4877F846093FF06C0282F287105
:102460002831F1F4877E84612091000320FF06C0AB
:10247000382F38713830D9F4877F816021FF06C04A
:10248000282F28712831D1F4877E816194FD877EC1
:102490000895282F24712430F9F68B7F8860DCCFD3
:1024A000282F2471243101F78B7E8861DDCF382FEE
:1024B0003171313019F78E7F8860E0CF282F21717C
:1024C000213121F78E7E8861E1CF80E008950E945E
:1024D000E80E08950E948B138FE39CE90197F1F7B2
:1024E00000C000000E948B1380E00E94A41260FFD5
:1024F00004C00E9467120E948D2908950E946A12EA
:1025000008950E94EF0E811102C00E948D0F0E945B
:10251000FB0E8093AC020E94050F90930003809302
:10252000FF020E947E120E94000F0E94040A809106
:102530000C020E941C0A089508950E949C1208959E
:1025400008950E94A012089594E0899FF00111243B
:10255000E75EFC4F608171818281938108950895C7
:1025600080EA8A95F1F7089500C008950E94B0129C
:102570000895F894E82FE295EF70F0E031A1282F4C
:102580002F7081E090E001C0880F2A95EAF7982F1C
:102590009095932391A392A1892B82A37894089577
:1025A000CF93DF93C0EAD1E089918F3F11F00E9471
:1025B000B91281E0C63AD807B9F7CEE8D1E08991DF
:1025C0008F3F11F00E94B91281E0C03AD807B9F7E5
:1025D000DF91CF9108954F925F926F927F928F9289
:1025E0009F92AF92BF92DF92EF92FF920F931F9351
:1025F000CF93DF938C01D62EC62FD0E0CE0180562C
:102600009E4F7C01FC0120812F3F09F45EC0F894AD
:10261000E22FE295EF70F0E031A12F7081E090E0C1
:1026200001C0880F2A95EAF7932F982B91A392A1C6
:102630008095892382A378940E94B412EEE8F1E099
:1026400020EA31E0412C512C32014394812C912C11
:10265000540181918F3F89F0A82FA295AF70B0E00F
:1026600090964C9150E08F7002C0559547958A9591
:10267000E2F7D301C20140FF03C080E090E0DC013B
:10268000882A992AAA2ABB2A440C551C661C771C46
:102690002E173F07F1F6F70180818F3F11F00E945E
:1026A000B91261E081149104A104B10409F460E05D
:1026B0008D2D0E94B612CC0FDD1FCC0FDD1FC00F79
:1026C000D11F88829982AA82BB82DF91CF911F910C
:1026D0000F91FF90EF90DF90BF90AF909F908F9001
:1026E0007F906F905F904F9008950E94D01288E184
:1026F000E9E1F3E0DF01982F1D929A95E9F7E1E017
:10270000F3E0DF011D928A95E9F786E00E94C61387
:102710000E944D050895A8E1B0E0E1E9F3E10C94D1
:10272000F1318E010F5F1F4F88E1F80111928A95F8
:10273000E9F7F12C6F2DC8010E94EB12F394F6E03B
:10274000FF12F8CF48E150E0B80181E093E00E9429
:10275000343221E0009709F420E0892B41F088E130
:10276000F801A1E0B3E001900D928A95E1F746E00F
:1027700069E173E081E093E00E94C713182F0E9483
:102780005005812F6896E5E00C940D320895CF92A4
:10279000DF92EF92FF920F931F93CF936C017B0117
:1027A000042F222349F081E08093AF020E94422946
:1027B0009093AE028093AD02C091AF02C1110AC0E6
:1027C000C0E08C2FCF911F910F91FF90EF90DF9081
:1027D000CF9008958091AD029091AE020E945A2947
:1027E000059770F384E0089F80011124A801B601C9
:1027F000C7010E943432892B41F0A801B601C701FC
:102800000E9441321092AF02DCCFC0E0FBCF0E94A9
:102810009C2B0E94CB0F0E94A92B08950E94AE2BE7
:102820000E94DA0F0E94C82B08950E94DB280E94A4
:10283000822B0E94AF0F0E9407140E940E140E9468
:10284000BF0FFBCF8091B60280FF0DC060910701E2
:1028500070E0660F771F6038710570F561157105BE
:1028600069F1862F089581FF07C06091070184E018
:10287000689FB0011124EFCF6091070182FD0AC06B
:102880008091B5028823A9F020910601609107018B
:10289000821710F088E0ECCF869FC001112433E04E
:1028A000880F991F3A95E1F7622F70E00E9470310E
:1028B000D2CF68E070E0D5CF8FE7089581E008952A
:1028C0008091B60280FF0CC06091030170E07595A5
:1028D0006795759567956115710549F1862F08957E
:1028E00081FF06C06091030170E075956795F3CF95
:1028F0006091030182FD0BC09091B4029923A1F075
:102900006091020180910301961738F0682F70E002
:102910006038710500F38FE70895899FC001112485
:1029200070E00E947031F4CF61E070E0D7CF81E0B9
:102930000895803F31F40E94221481958093BA0259
:102940000895813F19F40E942214F8CF823F31F498
:102950000E94221481958093B9020895833F19F44F
:102960000E942214F8CF893F29F40E9460148093BA
:10297000BB0208958A3F21F40E9460148195F7CF2D
:102980008B3F31F40E94601481958093BC020895BE
:102990008C3F19F40E946014F8CF9CE0980F95309A
:1029A00070F4845F990B21E030E001C0220F8A951A
:1029B000EAF78091B802822B8093B80208958D3F88
:1029C00031F48091B60281608093B60208958E3F03
:1029D00021F48091B6028260F7CF8F3FB9F78091E2
:1029E000B6028460F1CF4091B902803F59F48091E2
:1029F000BA0287FF0DC01092BA0241110BC01092AB
:102A0000B50208C0813F81F48091BA0218169CF388
:102A1000442381F08091BB029091BC02892B09F084
:102A20005AC01092B4020895823F49F447FFF0CF94
:102A30001092B9028091BA028111ECCFE0CF833FAE
:102A400019F41416ACF3E4CF9091BB02893F29F43A
:102A50001916F4F61092BB02DBCF8A3F19F497FFE8
:102A6000D7CFF8CF9091BC028B3F29F497FFD0CFFE
:102A70001092BC02CDCF8C3F19F41916CCF3C8CFFD
:102A80009CE0980F953090F4845F990B21E030E042
:102A9000B90102C0660F771F8A95E2F7CB018095D6
:102AA0009091B80289238093B802B2CF8D3F31F460
:102AB0008091B6028E7F8093B602AACF8E3F21F41A
:102AC0008091B6028D7FF7CF8F3F09F0A1CF809123
:102AD000B6028B7FF0CF08950E9442299C0190910D
:102AE000B9028091BA02982B21F03093B30220935F
:102AF000B2029091BB028091BC02982B21F03093DE
:102B0000B1022093B00287EB92E00E9494270895CF
:102B100086E0E7EBF2E0DF011D928A95E9F710927B
:102B2000B5021092B4021092B6020895FC0182819F
:102B300081110EC0838181110BC08481811108C075
:102B400091E08581811101C090E0892F8170089505
:102B500081E0FCCFA6E0B0E0E0EBF5E10C94F331CE
:102B600086E0E7EBF2E0DE01119601900D928A9586
:102B7000E1F71092B9021092BA021092BB021092C1
:102B8000BC028B819C81892B89F08091B20290914B
:102B9000B3020E945A29AC019091B5029923C9F160
:102BA000809108018417150608F440C08D819E812C
:102BB000892B91F08091B0029091B1020E945A2924
:102BC000AC019091B402992309F471C08091040181
:102BD0008417150608F479C0BE016F5F7F4F87EB3D
:102BE00092E00E949028811105C087EB92E00E943C
:102BF000961581110E946C1586E0FE013196A7EBB7
:102C0000B2E001900D928A95E1F72696E3E00C94EC
:102C10000F32209109018AE0289F90011124241786
:102C2000350720F69F5F9093B50202C09F3FD1F712
:102C30001B81112359F00E9422149FEF11160CF4EE
:102C400091E0899F802D11248093B9021C8111236A
:102C500059F00E9422149FEF11160CF491E0899F05
:102C6000802D11248093BA023091B902332309F4E4
:102C70009DCF2091BA02222309F498CF45EB34036B
:102C8000C0011124992359F09093B90245EB240314
:102C900090011124332339F03093BA0287CF81E0B9
:102CA0008093B902F3CF81E08093BA027FCF209165
:102CB00005018AE0289F900111242417350708F0A8
:102CC0008BCF9F5F9093B40202C09F3FD1F71D81CD
:102CD000112359F00E9460149FEF11160CF491E03B
:102CE000899F802D11248093BB021E81112359F0EE
:102CF0000E9460149FEF11160CF491E0899F802DC3
:102D000011248093BC023091BB02332309F464CFB9
:102D10002091BC02222309F45FCF45EB3403C001AC
:102D20001124992359F09093BB0245EB24039001A1
:102D30001124332339F03093BC024ECF81E08093CD
:102D4000BB02F3CF81E08093BC0246CFEF92FF92AB
:102D50000F931F93CF93DF93EB01E82FD1110EC098
:102D6000442321F0F0E0E157FA4FE4916E2F7E2FDB
:102D70008E2FCDB7DEB7E6E00C940C320D2F10E0AD
:102D8000282F30E0442329F021573A4FF9012491AC
:102D900030E0F6E0CF9FC0011124EFEFF0E0BF017B
:102DA0000E945C31AB018C2F90E0880F991FA5E544
:102DB000A49FB001A59F700D1124861B970B982F1F
:102DC000990F980FBF01601B710B629FD001639F29
:102DD000B00D729FB00D11248B2F9D9FB001112457
:102DE000672F7727EF01C61BD70BBE01629FE0015B
:102DF000639FD00D729FD00D11247F01E91AF10855
:102E0000E09EB001E19E700DF09E700D1124672FC1
:102E10007727E61BF70BE29F8001E39F100DF29FDF
:102E2000100D1124E12F722F4230510599F048F412
:102E30004115510569F04130510581F0EB2F8D2F7F
:102E400007C04430510569F080F046305105B1F7B4
:102E50006E2F8FCFE22F7B2F812FFACFE22F7D2F86
:102E6000F7CFEB2F822F712FF3CF7B2F822FED2FF8
:102E7000EFCF41E00E94A616089508950E943917E9
:102E80000895CF93DF93762FE901682F842F0E9456
:102E90003E17798368838A83DF91CF9108954739FC
:102EA00008F046E90E944117089580913103982F58
:102EB0009E7F61F48170826080933103809134033E
:102EC000873918F086E98093340308958A34B0F383
:102ED00081708864F1CF88E090E00E9452320895BA
:102EE000CF92DF92EF92FF926B017C010E94551707
:102EF000B701A60188E090E00E947032FF90EF9049
:102F0000DF90CF90089560913103709132038091EA
:102F10003303909134030E9470170895E1E3F3E0C6
:102F200083E0808311828FEF828386E9838314821A
:102F300060817181828193810E94701708958091D0
:102F4000310380FF02C08695089580E00895909136
:102F50003503933018F49F5F90933503882351F025
:102F60006091310370913203809133039091340367
:102F70000E947017089581E00E94A717089590910C
:102F80003503992319F0915090933503882351F01C
:102F90006091310370913203809133039091340337
:102FA0000E947017089581E00E94BF1708958091D4
:102FB0003503089580933503662351F06091310302
:102FC0007091320380913303909134030E94701703
:102FD000089560E00E94DA17089580913203089501
:102FE00080913303089580913403089570E00E9426
:102FF0009620089560910E018091310380FF0BC0EF
:1030000080910D0123E0829FC00111248A5C9C4FB6
:103010000E94F617089580910F019091100123E00E
:10302000829FF0011124EA5CFC4F891748F7118256
:10303000108212828F5F3396F8CF9091310390FF08
:103040000EC090910F012091100133E0939FF00189
:103050001124EA5CFC4F921718F00E94FA170895A9
:103060008183608342839F5F3396F5CFA3E0B0E016
:10307000ECE3F8E10C94F4319091310390FF0AC035
:103080009E012F5F3F4F0E944F174B8169818A81BC
:103090000E941D182396E2E00C941032CF93DF9328
:1030A000EC01EC81F0E0E65FFB4F4491E1E3F3E0FB
:1030B000628181810E9436188C818F5F8C83DF91C1
:1030C000CF910895CF93DF93EC01E1E3F3E04381E7
:1030D00062818C810E9436188C818F5F8C83DF9196
:1030E000CF910895A3E0B0E0E8E7F8E10C94F23165
:1030F0008C018091BD0281110AC09E012F5F3F4F5C
:1031000046E96FEF0E944F178A818093BD02F80154
:103110006481613069F08091BD0240E0662361F016
:1031200040E0623011F44091BD0280E060E004C0F4
:103130006091BD0240E080E00E941D18F80184818A
:1031400090E0019663E070E00E94703184832396E2
:10315000E4E00C940E32A3E0B0E0E1EBF8E10C9473
:10316000ED31082FD62EE42EC22E9091310390FF20
:1031700029C0E92FE695AE2FB0E0AA55BE4F8C913D
:103180008093C9029E7F923009F59E012F5F3F4FC9
:10319000802F0E944F174B8169818A810E941D18E0
:1031A00000933203D0923303E0923403CC2051F0E9
:1031B0006091310370913203809133039091340315
:1031C0000E9470172396E9E00C940932823019F4BA
:1031D000E0903403E5CF863019F400913203E0CF5C
:1031E0008930D9F38931E1F6E9516E2F6170B62E3D
:1031F000E695F0E0E65FFA4F1491F12C6091110131
:10320000F61618F00E94FA17CBCFF19EC0011124D8
:1032100070E00E945C31802FB11014C0860F2091A5
:103220000F01622F6F0D7727771F9B01220F331F2E
:10323000260F371F2A5C3C4F4E2D6D2D0E944F17D5
:10324000F394DCCF861BEBCFE1E3F3E09181282FF1
:103250004381628188E0890F0E94AB18089581E064
:103260000E9424190895E1E3F3E09181282F43811E
:10327000628188EF890F0E94AB18089581E00E9457
:1032800033190895E1E3F3E0628128E0620F08F466
:103290006FEF282F438181810E94AB18089581E050
:1032A0000E9442190895E1E3F3E0628128E0621B85
:1032B00008F460E0282F438181810E94AB180895B3
:1032C00081E00E9453190895E1E3F3E0438128E08F
:1032D000420F08F44FEF282F628181810E94AB18C2
:1032E000089581E00E9464190895E1E3F3E04381C9
:1032F00028E0421B08F440E0282F628181810E946F
:10330000AB18089581E00E947519089521E00E948C
:10331000AB18089520E00E94AB180895EF92FF9239
:103320001F93CF93DF93EC0110E0EE24EA94F12C8D
:1033300060911101161770F00E94FA179A818C8122
:1033400090FF27C08F5F8C83DF91CF911F91FF90FB
:10335000EF90089520910F01422F410F5527551FDF
:10336000CA019A01220F331F280F391F2A5C3C4FD4
:1033700070E0C7010E947031962F8C814091340318
:1033800060913303199F800D11240E944F171F5F16
:10339000CFCF8150D8CFB0E0A0E0E1EDF9E10C94BF
:1033A000EC31FC0182810FEF80FF01E010E04FE083
:1033B000A42E80911101181798F00E94FA1780919D
:1033C000BF02013009F04FC0811102C0809111018C
:1033D00081508093BF02CDB7DEB7EAE00C9408328B
:1033E000C0910F01C12ED12CCC0DDD2DD11DCE01F0
:1033F000880F991FC80FD91FCA5CDC4F1982188229
:103400001A8234E0E32EF12CB12C8091BF028B0D97
:1034100080311CF16A2D0E944E31892F082E000C3C
:10342000990BC816D90691F4809134038E9DA001A2
:103430008F9D500D112455954795559547959E01A3
:1034400060913303809132030E944F17B00EF1E078
:10345000EF1AF108D1F61F5FACCF87FFDFCF909155
:103460001101890FDBCF90E001966091110170E0AE
:103470000E947031AECF0F931F93CF93DF93809153
:103480000F019091100123E0829FF0011124EA5C6A
:10349000FC4F891740F1C0E0D3E060911101C617DD
:1034A00040F10E94FA1720910B018091BE02820F19
:1034B0008093BE0290910C01920F90930C0119160B
:1034C00054F4082E000C990B409111014150550BFA
:1034D000841795071CF0219520930B01DF91CF9164
:1034E0001F910F9108951182108212828F5F33967F
:1034F000D0CF0C2F10E070E0C8010E9470312091F5
:103500000F01820F482F50E02091BE02022E000CC6
:10351000330B02171307BCF020910C01022E000C94
:10352000330B201731077CF08D9F900111242A5C0A
:103530003C4F4091340360913303809132030E94E9
:103540004F17CF5FAACFFA01EE0FFF1FE40FF51F51
:10355000EA5CFC4F118210821282F3CFB0E0A0E04F
:10356000E4EBFAE10C94EA31EC014C81042F10E019
:103570009801D8010E94BB319B01AC010E94D1315E
:103580004B015C01E0E2F0E0E01BF10BA5E5B0E0EF
:10359000AC019B010E94D1316B017C019F01DF01D5
:1035A0000E94B3319B01AC010E94DC319B01AC0154
:1035B000280D391D4A1D5B1DC701B6010E948431CB
:1035C000F22E822F90E039E23F1520F143E0249F54
:1035D0009001112435952795122F109500E085E56F
:1035E000E82EEF1880911101081718F10E94FA17C0
:1035F0009C8181E0992319F0903219F48FEF809328
:103600000A0180910A01890F8C83CDB7DEB7ECE007
:103610000C94063225E530E0B901681B790B9B015B
:10362000220F331F260F371F37FFD4CF2F5F3F4F97
:10363000D1CF8E2D01FD8F2D20910F01622F600FB4
:103640007727771F9B01220F331F260F371F2A5C16
:103650003C4F412F609133030E944F170F5FC2CF41
:103660000F931F93CF93DF93EC0110E000E0909154
:1036700011019017110609F06CF40E94FA178C8161
:1036800090E00196817099278C83DF91CF911F91F3
:103690000F91089520910F01A801420F511D9A0129
:1036A000220F331F240F351F2A5C3C4F4C81609141
:1036B00033038091320396959017110651F04CF028
:1036C000442349F0409134030E944F170F5F1F4F6E
:1036D000CECF4423B9F340E0F7CFE1E3F3E08081BC
:1036E0008E7F808360817181828193810E947017B7
:1036F0001092CA022FEF80E792E021508040904064
:10370000E1F700C000000E94FA170895E1E3F3E03A
:1037100080818E7F80831092CA022FEF80E792E033
:10372000215080409040E1F700C000000E94FA174D
:1037300008951092CA028091C70281110AC081E0E7
:103740008093C7028091310381708093C6020E94EA
:10375000861B089560913103669570E04BE050E060
:1037600082E191E00E942732892B19F481E0809355
:10377000CA020E9442299093C1028093C002089518
:103780009091310390FF2BC09170811129C09260FC
:1037900090933103662351F06091310370913203AD
:1037A00080913303909134030E947017609131032C
:1037B000669570E04BE050E082E191E00E94273294
:1037C000892BA9F01092CA0281E08093C302409134
:1037D000340360913303809132030E948A19089563
:1037E000853210F09864D4CF880F982BD1CF0E94E7
:1037F000AA1BEACF682F90913103969581E0890F3B
:10380000853208F081E00E94C01B089581E00E948B
:10381000FA1B0895682F9091310396958FEF890FC9
:1038200009F484E20E94C01B089581E00E940A1CF2
:10383000089561E00E94C01B0895E1E3F3E08081F8
:103840008160808386950E94191C089580913103C0
:1038500080FF03C00E946D1B08950E941D1C0895E7
:1038600060E00E94C01B08958091C80281112EC0A3
:103870000E94EF0E811104C00E948D0F0E948E17CE
:103880000E946B176093310370933203809333036C
:10389000909334036E7F61F40E948E170E946B1721
:1038A0006093310370933203809333039093340316
:1038B0000E9455171092CA028091310380FF03C005
:1038C00086950E94301C81E08093C8020895E1E350
:1038D000F3E080818160808386950E94301C08958A
:1038E0001092C7028091C60281110E94671C0E943B
:1038F000AA1B08950F931F93CF93DF938091CA0261
:103900008823B9F18091C902E0913103E695E81B63
:10391000E093C202823091F5F0E0EA5FFB4FE49160
:10392000CE2FD0E00EE418E18091C302882361F02D
:103930001092C3020E9442299093C1028093C00258
:103940001092C5021092C4020E944229E091C00266
:10395000F091C1028E1B9F0B8F3F9F4750F4EC0FDD
:10396000FD1FF093C102E093C00280EC92E0F801E9
:103970000995DF91CF911F910F910895863049F4F9
:10398000F0E0ED5FFB4FE491CE2FD0E002E618E1CE
:10399000CBCF893051F4E695F0E0E050FC4FE49154
:1039A000CE2FD0E00EE819E1BFCF8F3051F4E6956D
:1039B000F0E0E350FC4FE491CE2FD0E00BEC19E1A6
:1039C000B3CF853149F4F0E0E650FC4FE491CE2FBF
:1039D000D0E00BE31AE1A8CFC8E2D0E00EEA1AE18A
:1039E000883109F4A1CF833239F4E8EFF3E0C591CF
:1039F000D49102E718E198CFC4EFD1E000E31BE1D6
:103A0000843209F491CFC0EDD7E00DE317E18CCFFC
:103A1000FA01811101C0FB0109950895CF93DF934D
:103A2000C82FD62F0E949F178C1748F00E949F170F
:103A30008D1728F40E94061CDF91CF9108958C2FDA
:103A40000E94191CF9CF1F93CF93DF93EC01FB0168
:103A5000128111117EC00E94010E8272CC3CFCE5E5
:103A6000DF0709F49CC008F041C0C63CECE5DE0766
:103A700009F481C0D8F4C33C9CE5D90709F471C0AE
:103A800030F4C23CDC4509F469C011E062C0C43CBA
:103A90009CE5D90709F46AC04EE359E16FE279E188
:103AA000C53CDC4591F70E94081D53C0C93CFCE5AC
:103AB000DF0709F46AC068F4C73CECE5DE0709F4E7
:103AC0005FC04FE459E160E679E1C83CDC4559F359
:103AD000DCCFCA3C9CE5D90709F45CC043ED57E153
:103AE0006BEB77E1CB3CDC45F1F2CFCFC13DFCE5A0
:103AF000DF0709F465C098F4CE3C9CE5D90709F4CA
:103B000057C008F451C0CF3CFCE5DF0709F455C0AD
:103B1000C03DDC4509F0B9CF6EE089E04BC0C43D43
:103B20009CE5D90709F452C058F4C23DFCE5DF0713
:103B300009F449C0C33DDC4509F0A7CF88E135C091
:103B4000C53D9CE5D90709F444C0CD35DD4509F0F4
:103B50009CCF812FDF91CF911F9108950E94261C49
:103B6000F8CF45E15CE166E07CE19DCF46E05CE1B9
:103B700065E17CE198CF4FE259E16EE379E193CFC3
:103B800040E659E16FE479E18ECF42E859E161E71F
:103B900079E189CF41E759E162E879E184CF4BEBE4
:103BA00057E163ED77E17FCF81E00E94191CD1CF0F
:103BB00065E082E00E940E1DCCCF68E086E0FACF7F
:103BC00064E18FE0F7CF67E185E1F4CF62E289E15C
:103BD000F1CF83E2EACF86E090E00E944A32089576
:103BE000682F86E090E00E945E3208958091630322
:103BF0000E94F01D0895E3E6F3E080818470816304
:103C000080830E94F01D08958091630386958695B8
:103C1000869508958091630381FD07C0826080933B
:103C200063030E94F01D0E94DA1F089580916303D0
:103C300081FF07C08D7F809363030E94F01D0E9467
:103C4000E61F08958091630381FF03C00E94161E42
:103C500008950E940A1E08958091630386958170DD
:103C6000089580911D0108950E94EF0E811104C0F6
:103C70000E948D0F0E94FB1D0E94EB1D8093630329
:103C8000883320F08770806380936303909163038F
:103C9000892F817090FF04C0892F8695869586951F
:103CA0000E94AE1F089580916303982F9695969574
:103CB0009695963040F49F5F990F990F990F8770F2
:103CC000892B8093630380916303816080936303F6
:103CD0000E94F01D809163038695869586950E94CB
:103CE000AE1F089580916303982F987F79F08850D4
:103CF00080936303887F91E009F490E080916303EF
:103D000090FB80F9809363030E94F01D8091630310
:103D10008695869586950E94AE1F089580916303CF
:103D200080FD13C0816080936303813019F489E0C2
:103D300080936303809163030E94F01D809163036D
:103D40008695869586950E94AE1F0895809163039F
:103D500080FF08C08E7F809363030E94F01D80E087
:103D60000E94AE1F08958091630380FF03C00E94EC
:103D7000A61E08950E948E1E089590916303892FB8
:103D80008695869586958F5F8F7197708730E0F462
:103D9000880F880F880F892B8093630380916303BA
:103DA000887F91E009F490E08091630390FB80F9B3
:103DB000809363030E94F01D80916303869586952E
:103DC00086950E94AE1F089590936303E7CF8730D6
:103DD00008F086E0909163039770282F220F220F3E
:103DE000220F922B90936303987F21E009F420E047
:103DF0009091630320FB90F9909363030E94AE1FA0
:103E000008950E94E71E809163030E94F01D0895AB
:103E1000FC01DB0112968C918823F9F0EB5BFC45E9
:103E2000E730F105D8F4E056FD4C0C94A63186E05D
:103E30000E94011F80E0089580E0FACF0E94721E68
:103E4000F9CF0E94531EF6CF0E94B31EF3CF0E94FB
:103E5000BD1EF0CF0E94221EEDCF81E00895269A6C
:103E60002E9808952E980895B0E0A0E0EAE3FFE1CF
:103E70000C94EA318C0180918600909187006CE06F
:103E800070E00E945C316017710758F0C80169E06A
:103E900070E00E945C31CB01CDB7DEB7ECE00C9452
:103EA00006328091860090918700E0908600F09025
:103EB0008700C0908600D0908700C6E0D0E0BE01A9
:103EC0000E945C3130E020E0060F171F211D311DDC
:103ED0004801590185E0880C991CAA1CBB1C8A95D5
:103EE000D1F7C701BE010E945C31F12CE12CA70182
:103EF0009601260F371F411D511DC501B4010E94B7
:103F0000843169017A01E0918600F0918700CA014D
:103F1000B9010E943E319B01AC01DF010E94D13109
:103F20009B01AC01C701B6010E943E312FE096957E
:103F30008795779567952A95D1F70091860010911E
:103F4000870030E020E0061717072807390708F038
:103F5000A2CF60918600709187009DCFCF93C82F2C
:103F6000873000F581111FC0809180008F7D809384
:103F700080000E94321FA0918600B09187002C2FF4
:103F800030E00E94BB3126E030E040E050E00E948B
:103F90008431C9010E94341F90938B0080938A0062
:103FA000CF910895C6E08091800080628093800068
:103FB000E2CF08951092CC021092CB021092CD0263
:103FC000EFE6F0E08081816080830895EFE6F0E025
:103FD00080818E7F80830E94041E0E94AE1F089500
:103FE0001F920F920FB60F921124EF92FF920F9330
:103FF0001F932F933F934F935F936F937F938F9371
:104000009F93AF93BF93CF93EF93FF9380911E0144
:104010008230C9F08F5F80931E01FF91EF91CF91A5
:10402000BF91AF919F918F917F916F915F914F91D0
:104030003F912F911F910F91FF90EF900F900FBE26
:104040000F901F90189581E080931E010E94311EF1
:10405000C82F0091CB021091CC020F5F1F4F0E941E
:10406000311E28E7829FB0011124C8010E945C31F3
:104070009093CC028093CB02C29FB0011124660FB3
:10408000672F661F770B71950E945C3167FD6FE7A4
:104090008091CD02823041F4603451F480916F0000
:1040A0008E7F80936F0004C0813011F46F37B1F3BD
:1040B000E62FF0E0E15FFA4FC491E0908600F090C7
:1040C00087000E94041E182F2C2F30E0D7010E9479
:1040D000BB312FEF30E040E050E00E948431C90155
:1040E00066E070E00E945C31169FC001179F900D42
:1040F00011240E94341F90938B0080938A008DCFEF
:104100000E942F1F82E28093800089E180938100CA
:104110008FEF9FEF90938700809386000E94341E5C
:104120000E942C1E81110E94DA1F0895249A45B125
:104130004F7E55B15061EFB7F8949B01220F331FAA
:10414000260F371F280F391F2817390741F4EFBFF3
:104150008FE594E00197F1F700C000000895DC01BD
:104160006D91CD0178E055B9000000C067FF45B9F9
:10417000660F000000C000C000C045B900C07A95BD
:1041800091F7E2CF83E290E00E944A32823289F4D2
:1041900084E290E00E944A32883059F485E290E04F
:1041A0000E944A3291E0813309F090E0892F8170BA
:1041B000089580E0FCCFCF93C82F6FEF811162E2AA
:1041C00083E290E00E945E326FEFC11168E084E20A
:1041D00090E00E945E326FEFC11161E385E290E0F2
:1041E0000E945E32CF910895089586E290E00E9489
:1041F0004A32682F70E090E080E008950895CF93F0
:10420000C62F0E94FE206C2F86E290E00E945E3254
:10421000CF91089580E00E94DB2060E070E0CB0148
:104220000E94FF200E9449250E94282681E00E94CA
:10423000DB2008950E94F4200E94F5200E94FE20B9
:104240000E94C220811102C00E940A210895CF93CA
:10425000FB01C281CC2309F19C0122513F45203151
:10426000310520F582510E943826C0E08C2FCF9175
:10427000089581E00E94330A43E062E081E00E94F9
:104280004305F3CF81E00E943F0A43E062E081E012
:104290000E944305EBCF82E0F6CF8031FFE59F0718
:1042A00089F381319F45B9F3C1E0E0CF8031EFE57B
:1042B0009E07F9F281319F45C9F682E0DBCF2FEFEF
:1042C000FC0120830895CF93DF93EC01888189302E
:1042D00029F08A3079F0DF91CF9108950E94041E71
:1042E0002FEF829FC001112466E070E00E945C31D4
:1042F0006983F1CF0E942C1E8983EDCFFC01808160
:10430000893019F08A3071F00895818126E0829F0A
:10431000C00111246FEF70E00E945C31862F0E9473
:10432000E71E08958181811103C00E94161E089521
:104330000E940A1E0895CF93DF93EC018881813893
:10434000E9F028F4803871F0DF91CF910895823838
:10435000C9F08338C9F70E94ED1789830E94F017CE
:104360008A83F2CF0E94F3172FEF829FC00111249E
:1043700066E970E00E945C316983E6CF0E949F1776
:104380008983E2CF0E94D717FBCFCF93DF93EC0155
:104390008881813821F128F4803869F0DF91CF914C
:1043A0000895823841F18338C9F70E94F317482FE6
:1043B0006A81898111C0898126E9829FC001112407
:1043C0006FEF70E00E945C31D62F0E94F017C82F6B
:1043D0000E94ED174D2F6C2F0E948A19DFCF898123
:1043E0000E94301C8981811103C00E94861BD6CF98
:1043F0000E94671CD3CF89810E94E917CFCFEF922B
:10440000FF920F931F93CF93DF93EC01E62EDC0115
:10441000ED918D01E150E33108F0B7C0F0E0E955CE
:10442000FD4C0C94A63119828AE08A836E2DCE0150
:104430000E94552ACDB7DEB7E6E00C940C32898194
:10444000823069F0833071F08130E1F40E944E29AE
:104450000E94AC316A837B838C839D83E7CF0E946B
:10446000F520F6CF8E01F12C8F2D0E94A412F801B9
:10447000828373836483F3940D5F1F4FF6E0FF1212
:10448000F3CFD4CF6E2DCE010E945F21CFCF898193
:104490008230C1F76A817B818C819D810E94AC3121
:1044A0000E94FF20C3CF4B816A8189810E940B2526
:1044B0009827892798279D838C83B8CF2C813D81AD
:1044C0003227232732274B816A8189810E942D253B
:1044D000ADCF0E944925AACFCD010E947E21C801FF
:1044E0000E94C521A3CFCD010E946321C8010E9473
:1044F0009B219CCF0E94F61D0E94831797CF0E949C
:10450000D925898393CF0E94DB259827892798276F
:104510009A8389838BCF6B8170E089819A81AE0108
:104520004C5F5F4F9827892798270E94DE257ECF12
:104530006B8170E089819A81AE014C5F5F4F982753
:10454000892798270E94032671CF0E9428266ECFC4
:104550000E94F924D6CF6B8170E089819A81AE01E7
:104560004C5F5F4F9827892798270E9483255ECF4D
:104570006B8170E089819A81AE014C5F5F4F982713
:10458000892798270E94A72551CF8FEF88834ECF88
:10459000CF93DF93EC01FB018281882309F464C18E
:1045A000C330FDE5DF07E0F5CA3F9CE5D90730F4ED
:1045B0009E0122503C4524313105D8F50E94050F5B
:1045C000909300038093FF02C231ECE5DE0709F40B
:1045D0001FC108F06EC0C9308CE5D80709F4F2C0DD
:1045E00008F03FC0C530ECE5DE0709F4DBC058F544
:1045F000C3308CE5D80709F4CDC008F0CFC0809156
:10460000FF028160C230DC4509F4AEC08091FF0238
:10461000909100030E94130F0E94B10980E009C02D
:10462000C53AEDE5DE0751F238F4C1369DE5D9070C
:1046300029F2DF91CF9108959E012D5A3D452330F7
:104640003105B8F7BBCF8091FF028062C730FCE52F
:10465000DF0709F489C008F4B1C08091FF028064CB
:1046600083C0CD309CE5D90709F4BAC070F48091BD
:10467000FF028E7FCB30FCE5DF0709F475C008F43C
:10468000A7C08091FF028D7F6FC0CF309CE5D90716
:1046900009F4B6C008F4A8C0C031FCE5DF0709F48E
:1046A000B3C0C131DC4509F0B1CF8091FF028F7BEF
:1046B0005BC0CF3F9CE5D90709F4B4C098F5CA3F69
:1046C000FCE5DF0709F472C0B8F4C4319CE5D907F2
:1046D00009F4B6C008F4A2C0C531DC4509F096CF94
:1046E0008091FF0282FB992790F921E0922790FBAD
:1046F00082F990FB83F938C0CC3F8CE5D80709F4E8
:1047000077C008F457C0CD3FECE5DE0709F474C06C
:10471000809100038360CE3FDC4509F077CF809322
:10472000000374CFC1368DE5D80709F496C068F44C
:10473000C130EDE5DE0709F48CC008F477C0C23063
:10474000DD4509F063CF80E085C0CD3A9DE5D9070E
:10475000E9F068F49091FF02892F8E7F90FF8160CD
:10476000C53ADD4509F052CF8093FF024FCFCE3AD4
:104770008DE5D80789F1CF3ADD4509F047CF909113
:104780000003892F877F93FF8860C9CF8091000342
:104790008860C5CF8091FF028260E6CF8091FF02E2
:1047A0008460E2CF8091FF028860DECF80910003B9
:1047B0008160B5CF809100038260B1CF8091FF020C
:1047C0008061D2CF0E94B1098091FF028068CCCF76
:1047D0008091FF028C60C8CF80910003877F9FCFBC
:1047E0008091FF028B7FC0CF8091FF02877FBCCF7B
:1047F000809100038E7F93CF809100038D7F8FCFB8
:104800008091FF028F7EB0CF8091FF028F7DACCF71
:104810000E94B1098091FF028F77A6CF8091FF029D
:10482000837FA2CF809100038C7F79CF809100039A
:10483000982F909591708E7F892B90FB81F96FCF87
:104840000E94B1099091FF02892F97FB87F9805848
:104850008BCF81E00E94900FD9CE9091FF02892FDB
:104860008F7E94FF806180CF81E0E3CEB0E0A0E056
:10487000ECE3F4E20C94EF31E82FF0E0E157F94F6C
:10488000D490282F26952695269530E0F901E15DF4
:10489000F84F0491877010E0082E02C01595079517
:1048A0000A94E2F701701127F901E15EF84FE490F4
:1048B000F12C082E02C0F594E7940A94E2F791E0F7
:1048C000E922FF24F901E15FF84FC491D0E002C072
:1048D000D595C7958A95E2F7C170DD2701151105B9
:1048E00019F081EE0E945206E114F10419F086EEEF
:1048F0000E9452068D2D0E945407E114F10419F014
:1049000086EE0E94E3060115110519F081EE0E9462
:10491000E306CD2B19F08CE20E945407CDB7DEB729
:10492000E7E00C940B32EF92FF920F931F93CF931B
:10493000DF93EC01162F0AE08881882309F454C024
:10494000813009F04EC08981813099F47E0122E0E6
:10495000E20EF11C8A810E945407E7012196812F03
:10496000815050F3EFE9FFE03197F1F700C000000C
:10497000F7CF823041F47E0182E0E80EF11C8A819B
:104980000E945206EACF833041F47E01E2E0EE0E4F
:10499000F11C8A810E94E306E0CF843011F0219659
:1049A000DDCF2A81229690E080E0AE014F5F5F4F1D
:1049B0002053330B2A30310548F0019778F2EFE9A4
:1049C000FFE03197F1F700C00000F7CF089FB0017A
:1049D000099F700D1124C901860F971F2981EA01D3
:1049E000E4CF0E943624BACFCDB7DEB7E6E00C9410
:1049F0000C3284E0089550E0440F551F94E2699F03
:104A0000400D511D112498ED899F400D511D112419
:104A1000CA01879608950F931F93CF93DF93843035
:104A2000C8F46630B8F44231A8F40E94FB248C012B
:104A30000E944A32C82FD0E0DC2FCC27C801019653
:104A40000E944A329E01282BC901DF91CF911F910C
:104A50000F91089590E080E0F8CF0F931F93CF93CC
:104A6000DF93122F032F843078F4663068F44231DC
:104A700058F40E94FB24EC01602F0E945E32612FEB
:104A8000CE0101960E945E32DF91CF911F910F916E
:104A90000895B0E0A0E0EFE4F5E20C94EC3188E991
:104AA000C82E80E0D82ED0E0C0E0760110E01CC017
:104AB0000E94D50421E030E08C171D0621F01CF087
:104AC000F50125913491402F612F8C2F0E942D25C7
:104AD00082E0A80EB11C0F5F023151F71F5F84E224
:104AE000E80EF11C163019F0570100E0E1CF2196D5
:104AF00088EDC80ED11CC430D105B9F6CDB7DEB7EC
:104B0000EAE00C940832EF92FF920F931F93CF9339
:104B1000DF93EC018A017C01E60EF71ECE01879639
:104B2000CE15DF0529F4CDB7DEB7E6E00C940C32E4
:104B3000C03623E0D20740F40E944A32F801808355
:104B40000F5F1F4F2196EACFF8011082F9CFB0E036
:104B5000A0E0EDEAF5E20C94EE317C016A018C01F3
:104B6000060F171FEC01CE018796C017D10729F455
:104B7000CDB7DEB7E8E00C940A32C03623E0D207A6
:104B800040F4FE01EE19FF09EC0DFD1D60810E944D
:104B90005E322196E8CF462F843040F4763030F4F0
:104BA000623120F4672F0E940B25089590E080E089
:104BB000089580E1089589E794E00895EF92FF92C7
:104BC0000F931F93CF93DF93EC018A017C01E60ED4
:104BD000F71ECE0189579C4FCE15DF0529F4CDB7BE
:104BE000DEB7E6E00C940C32C93724E0D20740F47B
:104BF0000E944A32F80180830F5F1F4F2196E9CF50
:104C0000F8011082F9CFB0E0A0E0E9E0F6E20C9400
:104C1000EE317C016A018C01060F171FEC01CE01F9
:104C200089579C4FC017D10729F4CDB7DEB7E8E00C
:104C30000C940A32C93724E0D20740F4FE01EE1981
:104C4000FF09EC0DFD1D60810E945E322196E7CFC9
:104C5000CF93DF93C7E8D3E060E0CE010E945E32DD
:104C60002196C11588E0D807B9F7DF91CF91089553
:104C7000A4E0B0E0EEE3F6E20C94EF31F82E8FE022
:104C80008F1548F18FEF97E00E944A32811123C0BF
:104C900007E813E0F11023C019821A821B821C82DC
:104CA000DD24D39478018FEFE81AF80AC8010E9436
:104CB0004A3289831A82882371F09FEF980F9330CC
:104CC000D8F48A83D9820E5F1F4FC7010E944A32EF
:104CD0008B83811112C02496E7E00C940B320115EE
:104CE00088E01807C1F3C8010E944A32811101C04F
:104CF000FA940F5F1F4FCECF870160E0CE0101967F
:104D00000E949324CFCFCF93DF93EB0186319C4554
:104D100011F50E94010E9A81992399F08A7A91E007
:104D200009F490E09093CE02811109C089E20E94BB
:104D3000D90D0E94420E80E0DF91CF91089585E366
:104D4000F6CF8091CE02811104C089E20E94E10D6C
:104D5000F0CF85E3FBCF81E0EFCF0F931F93CF938D
:104D6000DF93C42FD22FFC0182818823C9F04093A6
:104D7000D1020E9442299093D0028093CF0280E218
:104D80008C0F883040F4C77081E001C0880FCA954D
:104D9000EAF70E945D07DF91CF911F910F9108956F
:104DA0001091D102141332C08091CF029091D002A1
:104DB0000E945A29883C910548F5C0E2CD0F1D1785
:104DC000B9F080E2810F883040F4177081E001C0B3
:104DD000880F1A95EAF70E946407C83048F481E00A
:104DE0009D2F977001C0880F9A95EAF70E945D0782
:104DF000802F0E945407C83070F6D77081E001C040
:104E0000880FDA95EAF70E946407C5CF80E28C0F1D
:104E1000883008F6C77081E001C0880FCA95EAF7AC
:104E2000F2CF0F939C01CB01233F4CE5340759F19E
:104E3000A8F4283DFCE53F0701F1293D4CE5340786
:104E4000D1F1273D3C4591F406E221EE41EE67EDBC
:104E50007CE50E94AD2680E00F910895253FFCE59A
:104E60003F07E9F0B0F0263F3C45F9F0FC018281B4
:104E7000882339F11092D102EFCF07E225EE45EEFB
:104E800068ED7CE5E6CF06E221EE40EE63EF7CE5DF
:104E9000E0CF07E225EE44EE64EF7CE5DACF06E2F0
:104EA00021EE42EE65EF7CE5D4CF07E225EE46EE3B
:104EB00066EF7CE5CECF08E221E045EE69ED7CE5CA
:104EC000C8CF81E0C9CF9093DB018093DA010895C8
:104ED0009093D7028093D6020895E091D602F09184
:104EE000D702309729F00190F081E02D09950895BF
:104EF00080E00895E091D602F091D702309799F0C2
:104F000020912B01222359F02091FF0227FF07C097
:104F1000DC012C9111962C93119726E02C930280A2
:104F2000F381E02D09950895E091D602F091D70222
:104F3000309739F022E0DC012C930480F581E02DDC
:104F4000099508952091D4023091D5022817390788
:104F500071F09093D5028093D402E091D602F09143
:104F6000D702309721F00680F781E02D099508954A
:104F70002091D2023091D3022817390771F0909313
:104F8000D3028093D202E091D602F091D7023097FB
:104F900021F00084F185E02D09950895FC013296F9
:104FA00080912B01882321F08091FF029EE187FFF1
:104FB00096E080E0915008F4089521912223D1F3E6
:104FC0008F5FF8CF662301F120912B012223F1F0AE
:104FD0002091FF0227FF1AC0462F46954695469519
:104FE0004E3190F4677021E030E002C0220F331F91
:104FF0006A95E2F7840F911DFC01828190E02823DD
:10500000392381E0232B69F480E00895FC01329676
:1050100008962191261721F0E817F907D1F7F4CF68
:1050200081E008959C01FC0132969FEF80E0419160
:10503000461751F09F3F19F4411101C0982F8F5F1F
:105040008630A9F79F3F09F40895290F311D97FD78
:105050003A95F90162830895FC01329608962191F0
:10506000261303C0DF0111971C92E817F907B9F75F
:105070000895E62FE695E695E695EE3168F4E80F9B
:10508000F92FF11D677021E030E001C0220F6A9511
:10509000EAF78281822B82830895E62FE695E695D2
:1050A000E695EE3170F4E80FF92FF11D677021E0FD
:1050B00030E001C0220F6A95EAF72095828128230B
:1050C0002283089520912B01222339F02091FF02A1
:1050D00027FF03C00E94392808950E9412280895CE
:1050E00020912B01222339F02091FF0227FF03C0DA
:1050F0000E944D2808950E942C280895FC013296A4
:1051000080912B01882351F08091FF0287FF06C018
:105110008EE1DF011D928A95E9F7089586E0F9CFC7
:1051200046E050E00E94343221E0892B09F420E06F
:10513000822F089508950E949A280895811106C02B
:1051400081E08093D8020E949B28089582E0F9CFE5
:1051500083E08093D8020E949B2808950E949E2895
:10516000089581E08093D8020E949B2808950E94B0
:10517000B1280895089508950E94BB2808950895C0
:1051800008950E94BA280895CF930E94BF280E94D4
:105190008B130E94C028C0E08C2F0E94A412672BA2
:1051A000682B692B31F4CF5FC630B1F780E0CF9127
:1051B000089581E0FCCF85B7806885BF85B780689A
:1051C00085BF08951F921FB61F9211248F939F933E
:1051D000AF93BF938091D902811113C08091640372
:1051E00090916503A0916603B09167034196A11D5C
:1051F000B11D8093640390936503A0936603B093FD
:105200006703BF91AF919F918F911F901FBE1F9019
:10521000189580916C03843031F10E94D205109270
:10522000D90288E190E020E40FB6F894A895809325
:1052300060000FBE2093600083B7817F846083BFCE
:1052400083B7816083BF7894889583B78E7F83BF4F
:105250000FB6F894A89580916000886180936000F3
:10526000109260000FBE08950E94B1090E94DC05F3
:10527000089582E084BD93E095BD9AEF97BD809339
:105280006E0008952FB7F8948091640390916503A0
:10529000A0916603B09167032FBF08952FB7F894CC
:1052A0006091640370916503809166039091670338
:1052B0002FBF08959C014FB7F8948091640390919B
:1052C0006503A0916603B09167034FBF821B930BE8
:1052D000089578941F921FB61F9211248F939F9365
:1052E000AF93BF938091640390916503A09166038F
:1052F000B09167030196A11DB11D80936403909343
:105300006503A0936603B0936703BF91AF919F912C
:105310008F911F901FBE1F90189581E08093E00031
:1053200080E28093D8001092C9008FE19EE401973B
:10533000F1F700C0000087E090EBDC01809375037B
:1053400090937603A0937703B093780388E19CE071
:105350000FB6F894A895809360000FBE90936000FC
:10536000FFCF88E19CE00FB6F894A8958093600089
:105370000FBE90936000FFCF8091FD0208950895C5
:105380009C0184E08093E9009FEF8091E8009150B8
:1053900085FD06C085ED8A95F1F700009111F5CFE6
:1053A0008091E80085FF0CC050E040E066E070E0CE
:1053B000C9010E94672C8091E8008E778093E800F5
:1053C0000895CF93DF93EC0180912B018823B1F1F5
:1053D0008091FF0287FF32C060E284E08093E900A1
:1053E0008FEF9091E800815095FD06C095ED9A955C
:1053F000F1F700008111F5CF8091E80085FF1BC017
:1054000080912B0170E050E040E0811104C050E039
:1054100040E068E070E0CE010E94672C8091E800D7
:105420008E778093E80080E2FE01ADEDB2E001905E
:105430000D928A95E1F7DF91CF91089568E081E0C0
:10544000CDCF8093DA027093DC026093DB0280910F
:105450006C038430F9F48093E9008FEF9091E800B9
:10546000815095FD06C095ED9A95F1F700008111E8
:10547000F5CF8091E80085FF0DC050E040E063E08B
:1054800070E08AED92E00E94672C8091E8008E77B0
:105490008093E8000895BC0184E00E94212A0895C9
:1054A000BC0183E00E94212A0895CF93FC01603261
:1054B00021F580916C03843001F5C091E900CF7033
:1054C0002091EC00922F917020FD90E8C92B82E092
:1054D0008093E9008091E80080FF0CC050E040E03C
:1054E00060E270E0CF010E94672C8091E8008E7727
:1054F0008093E800CF70C093E900CF910895809128
:105500006B03811109C00E94442E0E94A62E809137
:10551000E20084608093E200089510926B03089586
:105520000E94B12808956091680381E0611101C073
:1055300080E00E94A828089590916C0381E0943047
:1055400009F080E0609168030E94AE28089542E06F
:1055500061EC81E00E94C02D42E261EC84E00E9497
:10556000C02D42E261EC82E00E94C02D42E260EC7C
:1055700083E00E94C02D90916C0381E0943009F08B
:1055800080E0609168030E949E28089580916E03D8
:10559000833009F463C030F48130E1F1823009F4E2
:1055A000A0C008958A3009F48CC08B3009F471C012
:1055B000893009F052C080916D03813209F04DC0ED
:1055C0008091710390917203009719F0029709F08E
:1055D00044C08091E800877F8093E8008091E800D4
:1055E00082FF37C08091F2009091F300029731F46E
:1055F0008091F100813011F0863021F48091F1002A
:105600008093FD028091E8008B778093E8000E94F0
:10561000F42D23C080916D03813AF9F48091E80064
:10562000877F8093E8008091710390917203892BAA
:1056300061F460E28DED92E070E00E94052D8091B2
:10564000E8008B778093E800089560E090E080E0C8
:10565000F3CF80916C038111C1CF089580916D03C8
:10566000813AD9F78091710390917203892BA9F740
:105670008091E800877F8093E8008091E80080FFB8
:10568000FCCF80912B018093F1008091E8008E7710
:10569000BCCF80916D03813201F7809171039091AD
:1056A0007203892BD1F68091E800877F8093E80010
:1056B0000E94F42D80916F0380932B010E94B10909
:1056C000089580916D03813241F68091E800877FD3
:1056D0008093E8000E94F42D809170038093FE0275
:1056E000089580916D03813A09F0B7CF8091E80069
:1056F000877F8093E8008091E80080FFFCCF809155
:10570000FE02C1CF84B7877F84BF0FB6F894A895F7
:1057100080916000886180936000109260000FBEED
:1057200080E890E00FB6F894809361009093610058
:105730000FBE0E94B72808950E94442E0E94A62EF4
:10574000E2EEF0E080818460808378940E942331CF
:1057500008958FE191E00E946827089580916C037D
:10576000853031F480916C03853019F00E94342922
:1057700008950E94092980916A03882399F30E9461
:10578000C428882379F30E94512C0E94B109EACFE2
:10579000A0E2B0E0EEECFBE20C94F43180916C03FB
:1057A000843009F583E08093E9008091E80082FF6E
:1057B0001AC08091E80090E085FF09C050E040E009
:1057C00060E270E0CE0101960E94B62C91E08091DB
:1057D000E8008B778093E800992329F060E2CE01FE
:1057E00001960E94FF21A096E2E00C9410320E94E4
:1057F000FA2B0895292F33272330310521F168F43E
:105800002130310509F443C02230310509F444C088
:1058100090E080E030E020E026C02132310551F1F7
:1058200022323105A9F76330710590F7FB01EE0FC5
:10583000FF1FE253FE4F2081318165537E4FFB01F4
:10584000808190E010C099278130910581F0009708
:1058500029F00297E9F6EFE3F7E002C0E1E6F7E0AE
:10586000849190E09F01FA01318320830895EBE455
:10587000F7E0F6CF6330710558F6660F771FFB012E
:10588000EC52FE4F2081318189E090E0ECCF82E143
:1058900090E020EC37E0E7CF8BE590E025E637E0BD
:1058A000E2CF88E189BD8AE189BD09B400FEFDCF60
:1058B0008091D8008F7D8093D8008091E000826035
:1058C0008093E0008091E00081FDFCCF0895AF92CD
:1058D000BF92CF92DF92FF920F931F93CF93DF93EC
:1058E0006C01EB018A010E94132EF82E811123C056
:1058F0000115110539F0F80180819181C81BD90B80
:10590000C80ED91EB12CA12C2097A9F08091E800D7
:1059100085FD22C08091E8008E778093E800011514
:105920001105A1F0F80180819181A80EB91EB18204
:10593000A08285E0F82E8F2DDF91CF911F910F91DE
:10594000FF90DF90CF90BF90AF9008950E94132EEC
:105950008823D1F2F82EEFCFF60181916F01809369
:10596000F1002197FFEFAF1ABF0ACECFAF92BF92DF
:10597000CF92DF92FF920F931F93CF93DF936C012F
:10598000EB018A010E94132EF82E811123C001150C
:10599000110539F0F80180819181C81BD90BC80E1F
:1059A000D91EB12CA12C2097A9F08091E80085FD8B
:1059B00022C08091E8008B778093E80001151105E3
:1059C000A1F0F80180819181A80EB91EB182A08258
:1059D00085E0F82E8F2DDF91CF911F910F91FF90D1
:1059E000DF90CF90BF90AF9008950E94132E882330
:1059F000D1F2F82EEFCF8091F100F60181936F0183
:105A00002197FFEFAF1ABF0ACECFFC01809173033D
:105A10009091740386179707A0F06115710529F41A
:105A20009091E8009E779093E80090E061157105F1
:105A300051F4911108C08091E80082FF33C080E0EA
:105A40000895BC01F2CF80916C038823B9F18530B1
:105A5000B9F18091E80083FD2FC08091E80082FDBC
:105A6000EACF8091E80080FFE1CF2091F2003091F1
:105A7000F3006115710519F02830310558F091E0F7
:105A80002830310509F090E02091E8002E7720932E
:105A9000E800CCCF81918093F100615071092F5FB4
:105AA0003F4FE7CF80916C03882341F0853041F070
:105AB0008091E80083FFBFCF81E0089582E00895E0
:105AC00083E00895FC01809173039091740386171D
:105AD0009707A0F06115710529F48091E8008E7791
